:10000000507BFF1F193E0000FD3E0000D312000090
:10001000FF160000A71700004718000000000000AE
:100020000000000000000000000000007718000041
:10003000B319000000000000EF1900006F3B000042
:100040002D3F0000353F00003D3F0000453F0000D0
:100050004D3F0000553F00005D3F0000653F000040
:100060006D3F0000753F00007F370000AB37000098
:100070007D3F0000853F00008D3F0000953F000060
:100080009D3F0000C9400000C9400000C940000079
:10009000C9400000C9400000C9400000C94000003C
:1000A000A53F0000AD3F0000B53F0000BD3F000090
:1000B000C53F0000CD3F0000C9400000D53F000013
:1000C000DD3F0000E53F0000ED3F0000F53F000090
:1000D000FD3F0000054000000D400000C940000049
:1000E000C9400000C9400000C9400000C9400000EC
:1000F000C9400000C9400000C9400000C9400000DC
:10010000F93B0000FF3B0000113C0000173C0000E1
:10011000C9400000C9400000C9400000C9400000BB
:10012000C9400000C9400000C9400000C9400000AB
:10013000353C0000C9400000993C0000013D000032
:10014000C9400000154000001D3C00001D4000009B
:10015000C9400000C9400000C9400000C94000007B
:10016000C9400000C9400000254000002D400000AB
:10017000354000003D400000454000004D4000007B
:10018000554000005D400000654000006D400000EB
:10019000754000007D40000085400000C94000001F
:1001A000C9400000C9400000C94000008D40000067
:1001B000C9400000C9400000954000009D4000007B
:1001C000A5400000AD400000B5400000BD4000006B
:1001D000C9400000C9400000C9400000C9400000FB
:1001E000C9400000C9400000C9400000C9400000EB
:1001F000C9400000C9400000C9400000C9400000DB
:10020000C9400000C9400000C9400000C9400000CA
:1003F000C9400000C9400000C9400000FFFFFFFFE6
:10040000FFFFFFFFFFFFFFFFFFFFFFFFFEFFFFFFFD
:100410002DE9F0439FB000BF65A6269CDFF8B48AA3
:100420008DF83B40029100240B944FF0FF370446B7
:1004300091461D460AE019F8011B0298A0470028C2
:10044000029000F0A1800B98401C0B9099F80000DE
:1004500050B12528EFD10021002205910692079185
:10046000089209910A9203E00B98A5E041F001017E
:1004700019F8010F2028F9D023280CD02B2804D0FC
:100480002D2805D0302809D080E041F00201EFE7A7
:1004900041F00401ECE741F00801E9E741F0100107
:1004A000E6E70D920AE00D98404505DA00EB800082
:1004B00002EB4002303A0D9209F1010999F800204F
:1004C000A2F130000A28EED399F800002E2818BFB8
:1004D0000C9726D119F8010F2A2808D1286828601E
:1004E00009F1010950F8042B28600C9219E02D281D
:1004F0000CBF09F10109002000220C920BE040B969
:100500000C9A424505DA02EB820203EB4203303BD0
:100510000C9309F1010999F80030A3F130020A2A7D
:10052000EDD3ADF83810304699F8001000F086FE93
:1005300008B119F8010B8DF83A009DF83A006828C7
:1005400005D199F8000068280CD1622106E06C28DA
:1005500004BF99F800006C2804D171218DF83A107D
:1005600009F1010910A804902A4619F8013B6946CF
:10057000204600F061F838B910AA6946204600F01C
:100580008FF900287FF562AF384615E02A2888D118
:100590002A682A6052F8040B2A6000280D9003D5BF
:1005A00040420D9041F0040109F101098CE700007F
:1005B000686A6C747A4C00001FB0BDE8F083622852
:1005C00020D0682811D06A2803D06C2827D0712841
:1005D00025D10868C01D20F007000860D0E900237D
:1005E00008300860194610467047002A0A680A60F9
:1005F000106803D0121D0A6000B217E0121D0A60D5
:1006000080B217E0002A0A680A60106803D0121D41
:100610000A6040B20AE0121D0A60C0B20AE0002A75
:100620000A680A60106803D0121D0A60C11770477B
:10063000121D0A600021704770B51C460D46B4F1CA
:1006400025002E69114600F019811C3868D0001F62
:10065000022865D9133842D0093861D0801E16D0DF
:10066000401E1ED0401E02285AD9001F19D0401F1C
:1006700000F08180401E32D0401E00F0CB80C01EB2
:1006800000F0DA80801E2AD0C01E28D0FCE0686905
:10069000421C6A610A680A6052F8043B0A603354DB
:1006A000FCE095F83A000122FFF789FFC5E9000157
:1006B000002904D56869411C69612D220DE0288F4D
:1006C000810704D56869411C69612B2205E0C007D8
:1006D00021D56869411C6961202232541BE095F8DC
:1006E0003A000022FFF76BFFC5E9000195F83800DA
:1006F000010710D5D5E90023002B08BF002A0AD036
:1007000044F02000782806D1686930213154401C1B
:10071000421C6A613454214668693044E86087E0CD
:100720000868C01D20F007000860D0E900230830E9
:100730000860C5E90023D5E90001C80F04D0686945
:10074000411C69612D220DE0288F810704D568695D
:10075000411C69612B2205E0C00704D56869411C72
:1007600069612022325468693044E8602146284695
:1007700000F0C4F992E005F13A02507820B14FF050
:10078000FF340FF6202062E01078622808D0682835
:1007900024D06A2812D06C282ED071280ED02BE0DD
:1007A0000A680A6052F8040B0A6020B94FF0FF345F
:1007B0000FF608204BE0E96A01706FE00A680A60F2
:1007C00052F8040B0A6020B94FF0FF340FF6EC101A
:1007D0003DE0EA6AD317C0E900235FE00A680A60D7
:1007E00052F8040B0A6020B94FF0FF340FF6CC101A
:1007F0002DE0E96A018051E00A680A6052F8040BB2
:100800000A6020B94FF0FF340FF6B0101FE0E96A1C
:10081000016043E00A680A6052F8040B0A60002194
:1008200020F0000221F0FF33C5E90023EE607821BB
:10083000284600F0BBF831E00868086050F8044B27
:100840000860EC603CB94FF0FF340FF6881000F000
:1008500005FD201A70BD2E6B002E04D5204600F039
:100860001DFD044608E032460021204600F032FD1E
:10087000002814BF041B3446AC610FE06869411CBA
:1008800069612522325409E06969481C68612522A2
:100890007254210002D0431C6B613454002070BD9F
:1008A0002DE9FC410F46064690467A6B7869396A15
:1008B000BC6A121AB869521A796A121AF869521A7D
:1008C000121A97F83800141B41070FD42020002C6F
:1008D0008DF800000ADD254601236A463946304678
:1008E00000F048FC00285DD16D1EF5D17B694246C1
:1008F0003946304600F03EFC002853D130208DF8B8
:1009000000003D6A002D09DD01236A463946304664
:1009100000F030FC002845D16D1EF5D1BB69FA68A6
:100920003946304600F026FC00283BD130208DF8B7
:1009300000007D6A002D08DD01236A4639463046F5
:1009400000F018FC70BB6D1EF6D1F868B969FB6940
:1009500042183946304600F00DFC18BB30208DF8A7
:100960000000BD6A002D08DD01236A463946304685
:1009700000F000FCB0B96D1EF6D197F838004107C1
:100980000DD52020002C8DF8000008DD01236A46DB
:100990003946304600F0EEFB20B9641EF6D1002047
:1009A000BDE8F6814FF0FF30BDE8F6812DE9FC434C
:1009B00007466F293E6908BF082405D041F0200092
:1009C000782814BF0A2410243C25D7E90023642981
:1009D00018BF69299046994605D1002B03D5D8F157
:1009E000000869EB4909B9F1000F08BFB8F1000F21
:1009F0001FD1386BE8B9082C4CD197F838000107A3
:100A000048D530203B2586F83B0043E000280ED532
:100A100097F8380000F01400102808D17B6B796932
:100A2000386A5B1A1B1A9A1A002AC8BF3A62BDE8D4
:100A3000F3838DF80010404649462246E31700F044
:100A400075FC3032D0B26D1E3A28019504DB9DF85A
:100A50000000A0F151018A187255404649462246CD
:100A6000E31700F063FC80465FEA010908BFB8F1B4
:100A7000000F03D0F86871198842DCD3082C09D123
:100A800097F83800010705D5705D302802D06D1E3B
:100A900030207055C5F13C02BA617119F960386BAC
:100AA0008242B3DA821A3A624FF6EF70398F014010
:100AB0003987BDE8F3832DE9D04306460F46144637
:100AC0004FF00008DFF8109412E0E00707D5424627
:100AD0004B463046394600F041FD06460F4640463B
:100AE000494642464B4600F039FD6410804689462F
:100AF000002CEAD130463946BDE8D0832DE9F84FC5
:100B000005468A464AF020048EB0D5E90089612C5A
:100B100002AE09D0286B002848BF062003D408BFC6
:100B2000672C01D101202863D5E900014A00521544
:100B3000521C0DD10B030BD0AAF1610103201A291D
:100B4000A86102D20FF2A86110E00FF2A8610DE0D7
:100B50004A005215521C0ED10B030CD1AAF16101AF
:100B600003201A29A86116D30FF29061E8680322C6
:100B700000F0C6FDC0E1CDE90C01DDE90C2323F056
:100B80000043B3F5801F0DD20027002B08BF002AB9
:100B9000019703D111E00FF26061E7E701AA00F0CD
:100BA00003FE0AE0CD48CE4900EB1350DDE90C23EB
:100BB00001900B40CB4910461943C5E90001612C57
:100BC0000DD1E86830210170821CBAF1610FEA6032
:100BD0000CBF7821582141706869801C6861D5E993
:100BE0000001CDE90C01DDE90C2333F0004104BF25
:100BF0000028002300F04881612C40F0A080286B81
:100C0000494600284CBF4FF0210B00F1010B404634
:100C100000220023DDE90C8900F0FEFD01990BF1B3
:100C2000010738BF89F00049091F002F01918DF895
:100C300008200DF1090040F33581A94900910646CD
:100C4000404649460022002300F0FEFD80F0298145
:100C50004800400D00F11C0211D0002A0FDD40F2C7
:100C6000FF739A4205DBA04909F0004001430020D0
:100C700011E0009B194041EA025140460BE028F088
:100C8000000039F0004108BF00280FBF49461C2270
:100C9000494600F0F1FD8046894600F08BFEFF1FBB
:100CA000002F044609DD00F0A3FE02460B46404635
:100CB000494600F0AFFE80468946F01D072104E05A
:100CC00004F00F0200F8012D2411002C01DD491E53
:100CD000F6D5491E5CBF002200F8012DF9D5DCE0F5
:100CE0000020194602AA0A4400E05B1E12F80149DE
:100CF000491E8442F9D00F2804D10DF10900425C4D
:100D0000521C4254002904D50198001D02AE5B1C00
:100D10000190581E0CD43118AAF13A040A783032E6
:100D2000D7B23A2FA8BFA218401E01F80129F5D565
:100D3000286B002840F1A780591E2963A3E0019980
:100D40006A4A47F29750414391FBF2F2019229F02F
:100D50000046D2F1070204DD40463146FFF7ABFE04
:100D60000AE0524200206249FFF7A5FE02460B4608
:100D70004046314600F0C0FE8046662C286B06BF18
:100D8000019F0A3706273F18142FC8BF14273020A9
:100D90008DF8080089460DF1090000E03046002F6B
:100DA00034DD06464046494600F0CAFF01460A4681
:100DB00006F1080304200A26B2FBF6F606EB860EBF
:100DC000A2EB4E02303203F8012C0A22B6FBF2F2FB
:100DD00002EB820EA6EB4E063036401E03F8026D83
:100DE000E9D1083F002F03F10806D7DD084600F0DF
:100DF000BBFF02460B464046494600F00BFE002270
:100E00003C4B00F0ABFB80468946CBE70DF1090176
:100E1000401A0DF1090604E00199491E401E019196
:100E2000761C31783029F7D0662C02D10199491C03
:100E300003E0652C0CBF012100212B6BCB189842DD
:100E4000B8BF431E002B1ED4834204DAF05C352861
:100E5000A8BF392000DA30201946721E02EB0108C3
:100E600000E05B1E18F80199491E8145F9D0392828
:100E700002D1705C401C7054002904D50198401CBC
:100E800016465B1C0190019800B200901BB23246DE
:100E90005146284600F034F82EE0C61D002F3FF7DB
:100EA000CFAE30460DF10901401A03465845C8BF80
:100EB0005B46002B0DF109063FF53AAF8342BFF6C2
:100EC0000FAF0DF10900C15C07297FF709AF0F20B3
:100ED00007E70000CBCCCC0C0000244002FCFFFF55
:100EE000FFFF0F800000E03F0000F07FA0860100C0
:100EF0000000F03F84D797410FB0BDE8F08F0000AD
:100F00002DE9F84783B006468A461746984600F012
:100F100039FFB8F1000F406A356B90F8009002DCA1
:100F20004FF00108B6A74AF02000BDF9304066280E
:100F300008BF641C15D0672840F0848014F1040FAA
:100F4000C0F28680AC4280F2838096F83800641C40
:100F5000010702D4A845B8BF454620B22D1A48BFA4
:100F600000250FFA84FAF068B169BAF1000F25DCA8
:100F70004A1C30234354002D03DC96F83800010747
:100F800003D5F06800F80290521C15EB0A0FB8BFA9
:100F90006C4220B2441941424445B8BFA046B261F8
:100FA00071620FFA88F5F561F068B3692A4639462F
:100FB000184400F0A5FB641BB462C4E022B2904563
:100FC000084417DA4246394600F09AFBB0694044BB
:100FD000B061AAEB0801002D716203DC96F83810AD
:100FE0000A0705D5F16801F80090F069401CF0612E
:100FF000B562A8E0394600F083FBB069002D50448B
:10100000A8EB040803DC96F838100A0703D5F1684A
:1010100001F80090401CB0610FFA88F08542F36837
:10102000B069B8BFA8460FFA88F207EB0A01184466
:1010300000F066FBB1690FFA88F00144B161281A2B
:10104000706280E0BAF1610F14D14FF0700A16E0BF
:10105000A84504DA96F838100A0758BF45466D1EB1
:1010600048BF0025BAF1670F14BF4FF0450A4FF093
:10107000650A04E0BAF1410F08BF4FF0500AB169A8
:10108000F368481CB061002D17F8012B5A5403DC9B
:1010900096F838100A071BD5F168431CB36101F8B4
:1010A0000090002D14DDA8F101080FFA88F03946F0
:1010B0008542F768B8BFA8460FFA88F2F81800F022
:1010C0001FFBB0690FFA88F108446D1AB0617562B0
:1010D000F068B1690844002C80F800A003D42B22EA
:1010E0004270811C03E02D2141706442811C00206C
:1010F0006A460AE023460A2493FBF4F404EB8405D1
:10110000A3EB450302F8013B401C24B2002CF1DCA8
:10111000012806DC4AF02002652A04BF302201F8CB
:10112000012B48B9302001F8010B07E0401E1DF8E3
:101130000030303301F8013B0028F7DCF268B06979
:101140001044091AF16196F8380000F014001028D4
:101150000DD17269B169706A8A18F1698218B06A32
:101160008A188218706B8242BCBF821A326204B045
:10117000BDE8F087F8B505460E4617461C46002028
:1011800074B117F8011BB068A847B06030B1F06ABD
:10119000401CF0620020641EF3D1F2BD4FF0FF301E
:1011A000F2BD00007072696E74665F733A20256E3E
:1011B00020646973616C6C6F776564007072696E2E
:1011C00074663A2062616420256E20617267756DD5
:1011D000656E74007072696E74665F733A20626146
:1011E0006420257320617267756D656E7400000060
:1011F0006E616E004E414E00696E6600494E4600BB
:10120000300030B4002513E050F8042BD30744BF5E
:10121000A9F101039A18091F042942F8045BFAD2C4
:1012200013468C0744BF15809B1CC90748BF1D701F
:1012300050F8041B0029E7D130BC7047C9B20278CE
:101240008A421AB11CBF10F8012FF9E718BF00201D
:1012500070470268531C03601170704780B500B975
:1012600006A005490B681BB122220021984701E026
:1012700000F08CFD222002BD445BFF1F636F6E7384
:10128000747261696E742068616E646C65723A2074
:10129000626164206D6573736167650000F101032D
:1012A000810704D010F8011B820781B1FAD10268CE
:1012B000A2F10131914311F0803104BF50F8042FA5
:1012C000F6E709BAB1FA81F100EBD100401CC01A6F
:1012D0007047FEE7C9B2830706D0521E22D310F82A
:1012E000013B9942F7D11FE0083A13D302F10402FF
:1012F00041EA012141EA014150F8043B121F21BF9C
:101300004B40A3F1013C2CEA030C1CF0803FF3D0CE
:10131000C9B2001F083210F8013B521E28BF91EAE3
:10132000030FF8D818BF0120401E7047BBBBE1B1C6
:10133000B2F5803F80F07E80022A1ED98C46B1FB38
:10134000F2F102FB11C31B0443EA1043B3FBF2FCAE
:1013500002FB1C3380B240EA0343B3FBF2F002FB12
:10136000103240EA0C4000237047022A05D9844617
:10137000B0FBF2F002FB10C270474AB105D100F099
:10138000010249085FEA30007047002200237047DD
:1013900000F000BD0B0002000021002070479042C9
:1013A00071EB030CF6D3B3F5803F2FD2F0B5B3FA4F
:1013B00083F7B1FA81F4A7F10F0E3D1B5340CEF134
:1013C000200602FA0EF2F3415340B5F10F0746D85A
:1013D0000F3C2C444140C4F12006A040F141414063
:1013E000B1FBF3F603FB1611A2FB0645001BA94156
:1013F00002D2761E8018594180EA010221FA0EF3CA
:1014000062FA0EF200215A403046F0BD30B4B1FB12
:10141000F3FC03FB1C11A2FB0C45001BA94103D2EA
:10142000ACF1010C8018594130BC02460B466046B5
:1014300000217047B2F1807F65D3F0B5B2FA82F730
:10144000B1FA81F4C7F10F063D1B22FA06F307F14A
:10145000110EF24120355A40B5F10F07B8D941407D
:10146000C4F12006A040F1414140B1FBF3FC03FB75
:101470001C11A2FB0C45001BA94103D2BCF1010CBD
:10148000801859410F2F12D30F3FC90341EA504131
:10149000B1FBF3F603FB1611A2FB0645D4EBC030FB
:1014A000A94102D2761E8018594146EACC3C07B3C6
:1014B0004140C7F12006B840F1414140B1FBF3F68D
:1014C00003FB1611A2FB0645001BA94102D2761EA2
:1014D0008018594180EA010221FA0EF3C7F1200475
:1014E00062FA0EF20CFA07F05A402CFA04F130437B
:1014F000F0BD80EA010221FA0EF3002162FA0EF239
:1015000060465A40F0BD8C46B1FBF2F102FB11C3BC
:101510001B0243EA1063B3FBF2FC02FB1C331B0209
:101520004CEA002043EA1063B3FBF2FC02FB1C33DD
:101530001B024CEA002043EA1063B3FBF2FC02FBFF
:101540001C331B024CEA002043EA1063B3FBF2FC9D
:1015500002FB1C324CEA002000237047B0B581EA40
:10156000030C0CF0004C40F2FF7515EA11541DBF3E
:1015700015EA1357AC42AF4239E0E41923EA455368
:1015800043F48013C90241F0004141EA505EC702B2
:101590001100A7FB020200284FF00000EEFB012023
:1015A0004FF00001E3FB072118BF42F00102401891
:1015B00000214941E3FB0E01A4F580640F0302D230
:1015C00052004041494154F101046CDD470872F179
:1015D000004250F1000051EB0451A1F580115CBFB5
:1015E00041EA0C01B0BD4CEA05510020B0BD05EA4E
:1015F0001357AC4214BFAF4241E050EA410E1CBF4A
:1016000052EA430E02E061460020B0BD24423C4451
:101610001BD15FEA070EF6D0090302BF0146002086
:10162000AEF1140EB1FA81F7AEEB070401FA07FE32
:101630000C37C7F1200100FA07F7C8404EEA000E48
:1016400023EA455343F48013A2E733F00043B3FA8F
:1016500083F704BFB2FA82FE77440B3FE41BB7F175
:10166000200E2FBF02FA0EF3BB40C7F1200E22FA64
:101670000EFE38BF43EA0E03BA40641C82E750EA0C
:10168000410E14BF52EA430E6FF000014FF40017F1
:1016900017EB430F8ABF194617EB410FB5E74CEA2A
:1016A00005510020B0BDD4F10104B4F120070FDAD8
:1016B000C4F12007520828BF42F0010210FA07F5D2
:1016C00001FA07F7E1BF2A43E0403843E1400FE069
:1016D000352C98DCC7F1200452EA400220FA07F2C8
:1016E00018BF42F0010231FA07F0A1400A4300217D
:1016F00072F1004250F1000051EB0C01B0BDFEE769
:1017000062B38B0708D0521E11F8013B00F8013B71
:1017100000F024808B07F6D1830740F0208000BFC3
:10172000103A07D330B4B1E83810103AA0E83810B6
:10173000F9D230BC530724BFB1E80810A0E8081064
:1017400044BF51F8043B40F8043BD20724BF31F8B2
:10175000022B20F8022B44BF0B7803707047121F36
:1017600017D35B0009D151F8043B20F8023B1B0C56
:10177000121F20F8023BF6D20BE051F8043B00F8B0
:10178000013B1B0A20F8023B1B0C121F00F8013B17
:10179000F3D238BF121D521E24BF11F8013B00F8CE
:1017A000013BF8D87047FEE710B5144600F002F888
:1017B000226010BDC1F30A5343B14A0012F5001F65
:1017C00028D2A3F2FE32A1EB0251704750EA410C3D
:1017D00020D001F0004C31EA0C01B1FA81F204BFD3
:1017E000B0FA80F3D2180B3AB2F120032CBF00FA02
:1017F00003F1914041EA0C013EBFC2F1200C20FAF6
:101800000CF319439040524240F2FD33D21A01EBDF
:1018100003517047002270474FF4001C1CEB410F2E
:1018200094BF1CEB430F09E041EA030C50EA4C0C57
:1018300052EA0C0C03D2994208BF9042704714BF81
:101840008B4282427047FEE74FF4001C1CEB410FB5
:1018500094BF1CEB430F09E041EA030C50EA4C0C27
:1018600052EA0C0C03D28B4208BF8242704714BF6D
:10187000994290427047FEE7124254D440F2FF7CF6
:101880001CEA11530FD0634531D09B1863453CBF10
:1018900001EB0251704701F0004141EA0C51002078
:1018A000AFF30080704750EA410320D001F0004CB4
:1018B00091EA0C011CD0B1FA81F30B3B9A420DD98D
:1018C000D21A994051EA0C01C3F1200C20FA0CFC09
:1018D00061449840531C40F2FF7CD7E7914041EAB5
:1018E0000C01C2F1200C20FA0CF319439040704710
:1018F000B0FA80F31533202BE0D3202AEED3203A20
:10190000203B9A4209D9D21A00FA03F141EA0C01AC
:101910000020531C40F2FF7CB8E700FA02F141EAD4
:101920000C0100207047524240F2FF7C1CEA115328
:101930000DD06345DBD0B2EB030C3CBFA1EB0251F1
:1019400070470CF1010221EA035141F4801150EA81
:10195000410CCCD001F0004C352A27DC30B481EAB0
:101960000C01B2F1200309DAC2F12003044601FAA6
:1019700003F5D0402843D1409C400CE0C3F1200245
:10198000450020FA03F418BF44F0010421FA03F0E3
:1019900091400C43002174F1004550F1000051EBDF
:1019A0000C01244230BC7FF47BAF704761460020BD
:1019B00076E7FEE7C1F30A5340F2FE329B1A14DDCC
:1019C000D3F120034FEAE17208DDC90241EA505128
:1019D00041F00040D84080185040704703F2E13099
:1019E00010B1D24382F00040704700207047FEE7FC
:1019F000C11768B14840401AB0FA80F29040D21C3A
:101A0000C907C2F5846241EA025202EBD0214005C7
:101A10007047000070B44FF0004591EA030F40F1A9
:101A2000BB816B40841A71EB030603D2001BB141EA
:101A3000121973414FF4001C1CEB410F34BF7CEBB7
:101A4000430442E00C0DA4EB1356352E4FDC45EA5F
:101A5000C323DB0A45EAC121C912B6F120050DDD19
:101A600063FA05F6EB4086EA0305124218BF45F01B
:101A70000105C01851F100010CD213E062FA06F51D
:101A8000F2405540F3415A40B340F3405A40801869
:101A9000594107D349085FEA30005FEA350528BF9E
:101AA00045F0010501F58011420875F1004250F141
:101AB000000041EB04514E0016F5001F70BC38BF0A
:101AC00070470020090D090570471CEB410F10D22B
:101AD00052EA43060BD0BCEB410F05D80C0DAB43CB
:101AE000661E342EB6DD02E0AB438018594170BC4F
:101AF000704770BC70470000F0B540F2FF7581EA96
:101B0000030C0CF0004C15EA11541DBF15EA1357D5
:101B1000AC42AF42E5E0BC41C1F31301C3F3130390
:101B2000801A994143F4801304D2641E4000494155
:101B300080185941C90241EA5051B1FBF3F603FB49
:101B40001611A2FB0675D7EBC020A94102D2761E62
:101B500080185941C90241EA5051B1FBF3FE03FB21
:101B60001E11A2FB0E75D7EBC020A94103D2AEF126
:101B7000010E80185941890241EA9051760546EAE2
:101B80008E2EB1FBF3F603FB1611A2FB0675D7EB05
:101B90008020A94102D2761E80185941C90241EA2B
:101BA00050514EEA060EB1FBF3F603FB1611A2FBF1
:101BB0000675D7EBC020A94102D2761E8018594184
:101BC000C90241EA5051B1FBF3F703FB1711A2FB25
:101BD0000735D3EBC020A94167F100070CBF0042D5
:101BE00047F0010766F3D5274FEA1E31B80814F510
:101BF000806412DDBD0775F1004250EB0E5051EBD1
:101C0000045111F5801F5CBF41EA0C01F0BD4CF09E
:101C10007F6141F0E0410020F0BDBD076D0840EA62
:101C20000E5041F48011D4F10104B4F120060ADA17
:101C3000C4F120060200E04001FA06F3E140184337
:101C4000B24015430EE0342C13DCC6F1200445EA03
:101C500040056D0820FA06F2154321FA06F0A1406E
:101C60000D43002175F1004250F1000051EB0C01D1
:101C7000F0BD00205FEA0C01F0BDCFB992185B41C6
:101C8000B3FA83F704BFB2FA82F6BF190B3FB7F17C
:101C900020062FBF02FA06F3BB40C7F1200622FA46
:101CA00006F638BF3343BA401CB1E419641E33E76B
:101CB0007F4231F00041B1FA81F404BFB0FA80F6FE
:101CC000A4190B3CB4F120062FBF00FA06F1A14085
:101CD000C4F1200620FA06F638BF3143A0403C1B71
:101CE0001AE7AC421ABF05EA1357AF4212E050EAB6
:101CF00041061CBF52EA4306BFE750EA410730469F
:101D000061461CBF41EA0551F0BD52EA430C08BFD1
:101D1000C143F0BD00204FF4001616EB410F98BFF1
:101D200016EB430F08BF16EB410F24BFC14305E07C
:101D300016EB430F0CBF61464CEA0551F0BD0000A5
:101D4000400D491840EA81200CD2490DA1F580616F
:101D5000491C40F0004005DBD1F11F0154BFC840D1
:101D6000C017704700207047014648B1B0FA80F1B3
:101D70008840C91CC1F58461090501EBD0214005EB
:101D800070470000004870474800FF1F012000F026
:101D9000B9B8000070470000841A71EB030604D242
:101DA0006E40001BB141121973414FF4001C1CEB33
:101DB000410F34BF7CEB430683E00C0DA4EB1356BC
:101DC000362E00F37C80012E45EAC32341DC43EA32
:101DD000525312BFD20292025B08240545EAC12188
:101DE00041EA5051D2EBC020994125D407D1B0FA35
:101DF00080F610FA06F162D00020203608E0B1FA31
:101E000081F6B140C6F1200220FA02F21143B0403F
:101E10004FEAF474B4EB465434F001064FEA74040C
:101E20000AD8D6F50016760D04F00044F04061FAA9
:101E300006F25040F1404840C00A40EA415021F0CB
:101E4000004128BF5FEA500550F1000044EBD1216A
:101E500035E0DB0A45EAC121C90AB6F120050EDDED
:101E600042EA0242120CC5F1200603FA06F6EB40E4
:101E700042EA06056D42984161F100010DE062FA07
:101E800006F5F240554063FA06FC82EA0C02F34084
:101E90005A406D42904161EB030111F4801F05D15E
:101EA000641E620502D06D004041494121F4801159
:101EB000430875F1004350F1000041EB045170BC40
:101EC00070471CEB410F15D223F0004352EA430642
:101ED0000BD04FEA4C0CBCEB410F04D80C0D661E26
:101EE000342EB7DDEBE7801A994150EA410608BF6E
:101EF0000021E4E708BF1CEB430F28BF6FF000018F
:101F0000DDE7000080B5AFF30080024A1100182021
:101F1000ABBEFBE72600020000000000000000004E
:101F20000000000000000000000000F800000000B9
:101F3000000000333000000000100C06100C0600FA
:101F4000000000000000000040C07840C078400061
:101F5000043F04043F040400007088FC08300000C3
:101F6000001820FF211E0000F008F000E01800001B
:101F700000211C031E211E0000F0088870000000D4
:101F80001E2123241927211010160E000000000026
:101F90000000000000000000000000E01804020043
:101FA000000000071820400000020418E0000000B4
:101FB0000040201807000000404080F080404000B2
:101FC0000202010F01020200000000F00000000008
:101FD0000101011F010101000000000000000000DC
:101FE00080B0700000000000000000000000000051
:101FF00000010101010101010000000000000000DA
:102000000030300000000000000000008060180474
:10201000006018060100000000E010080810E00051
:10202000000F102020100F00001010F8000000001A
:102030000020203F20200000007008080888700061
:1020400000302824222130000030088888483000E1
:102050000018202020110E000000C02010F8000001
:1020600000070424243F240000F80888880808009A
:102070000019212020110E0000E0108888180000AF
:10208000000F112020110E0000380808C838080081
:102090000000003F00000000007088080888700001
:1020A000001C222121221C0000E010080810E00082
:1020B0000000312222110F00000000C0C00000000B
:1020C0000000003030000000000000800000000030
:1020D0000000806000000000000080402010080028
:1020E00000010204081020004040404040404000F1
:1020F00004040404040404000008102040800000CC
:102100000020100804020100007048080808F000D0
:102110000000003036010000C030C828E810E000A0
:102120000718272423140B000000C038E00000002B
:10213000203C23020227382008F888888870000095
:10214000203F202020110E00C03008080808380069
:10215000071820202010080008F808080810E000E0
:10216000203F202020100F0008F88888E808100081
:10217000203F20202320180008F88888E808100055
:10218000203F200003000000C0300808083800008D
:1021900007182020221E020008F808000008F8088E
:1021A000203F210101213F20000808F80808000015
:1021B0000020203F2020000000000808F808080048
:1021C000C08080807F00000008F888C028180800C0
:1021D000203F20012638200008F8080000000000F9
:1021E000203F20202020300008F8F800F8F80800F0
:1021F000203F003F003F200008F830C00008F808EA
:10220000203F200007183F00E01008080810E000F9
:102210000F10202020100F0008F808080808F00010
:10222000203F210101010000E01008080810E00033
:102230000F18242438504F0008F8888888887000C8
:10224000203F2000030C3020007088080808380068
:102250000038202121221C00180808F8080818005E
:102260000000203F2000000008F808000008F808DF
:10227000001F202020201F000878880000C8380890
:10228000000007380E010000F80800F80008F80008
:10229000033C0700073C03000818688080681808A2
:1022A00020302C03032C30200838C800C838080020
:1022B0000000203F2000000010080808C83808006F
:1022C0002038262120201800000000FE0202020013
:1022D0000000007F40404000000C30C000000000C3
:1022E000000000010638C00000020202FE000000EB
:1022F000004040407F000000000004020202040091
:1023000000000000000000000000000000000000CD
:1023100080808080808080800002020400000000B5
:1023200000000000000000000000808080800000AD
:102330000019242222223F2008F80080800000009B
:10234000003F112020110E0000000080808000005E
:10235000000E112020201100000000808088F8006D
:10236000000E112020103F2000008080808000009F
:10237000001F222222221300008080F08888881803
:102380000020203F2020000000008080808080000E
:10239000006B94949493600008F8008080800000A3
:1023A000203F210000203F2000809898000000007E
:1023B0000020203F202000000000008098980000AE
:1023C00000C08080807F000008F8000080808000CE
:1023D000203F24022D302000000808F800000000F3
:1023E0000020203F202000008080808080808000AE
:1023F000203F20003F20003F808000808080000040
:10240000203F210000203F200000808080800000CD
:10241000001F202020201F008080008080000000FE
:1024200080FFA12020110E0000000080808080002D
:10243000000E112020A0FF8080808000808080001E
:1024400020203F212000010000008080808080004B
:102450000033242424241900008080E080800000C0
:102460000000001F2020000080800000008080000D
:10247000001F202020103F2080808000008080806E
:1024800000010E30080601008080008000808080FE
:102490000F300C030C300F00008080008080800023
:1024A0000020312E0E31200080808000008080804E
:1024B00080818E70180601000080808080808000FE
:1024C0000021302C2221300000000000807C02021C
:1024D00000000000003F404000000000FF0000003E
:1024E00000000000FF0000000002027C80000000ED
:1024F0000040403F00000000000601010202040409
:10250000000000000000000038B588B04FF4E13151
:10251000DFF84C04DFF84C440FF2A44500F085FAD4
:1025200000F01EFB00F01EFC0FF2444200210F20C1
:1025300000F031FC0FF2484000F086FC00F048F853
:10254000002806D00FF24C4202210F2000F023FC9D
:10255000FEE700F029F9E06800F08AFC02460B462D
:102560000FF24441684600F0A7FCE06800F080FCF0
:1025700002460B460FF2384000F066FC206800F07F
:1025800077FC02460B46284600F05EFCA06900F08E
:102590006FFC02460B46284600F056FC94ED000AFC
:1025A000D4ED060A70EE600A10EE900A00F060FCAE
:1025B00002460B46284600F047FC684600F09CFCAB
:1025C000642000F0B5FC0FF2084000F03DFCC0E7CD
:1025D0003EB5DFF894430A2500950123002202212D
:1025E000204600F0C1FC642000F0A2FC752000F041
:1025F000A2F90146122906D00FF2EC3000F024FCBB
:102600000FF2F03001E00FF2004000F01DFC8021DD
:102610006B2000F088F9642000F08AFC00216B2018
:1026200000F081F9642000F083FC1B2118220220B5
:102630008DF804108DF80520009001AB01AA02214D
:10264000204600F00CFE1C21182202208DF80410F8
:102650008DF80520009001AB01AA0221204600F070
:10266000FEFD0721192000F05EF902211A2000F07A
:102670005AF91D21182202208DF804108DF805202A
:10268000009001AB01AA0221204600F0E8FD3821AC
:10269000002202208DF804108DF80520009001AB77
:1026A00001AA0221204600F0DAFD6A210022022060
:1026B0008DF804108DF80520009001AB01AA0221CD
:1026C000204600F0CCFD6B21012202208DF8041081
:1026D0008DF80520009001AB01AA0221204600F0F0
:1026E000BEFD6C21002202208DF804108DF805201B
:1026F000009001AB01AA0221204600F0B0FD642049
:1027000000F016FC00F0B8F8002003B030BD01ABBB
:1027100001AA0221944800F0A2FD03B000BD2DE9FA
:10272000F04385B004460C9E0D9FBB208DF804003D
:102730000D460F2000909046994601AB01AA022158
:10274000894800F08CFD9DF805009DF8061041EACF
:10275000002121809DF807009DF8081041EA002122
:1027600029809DF809009DF80A1041EA0021A8F887
:1027700000109DF80D009DF80E1041EA0021A9F807
:1027800000109DF80F009DF8101041EA00213180E3
:102790009DF811009DF8121041EA0021398005B022
:1027A000BDE8F0830000000030B585B002A80DF14F
:1027B0000A010190009103AB0DF10E0204A90DF185
:1027C0001200FFF7ACFFBDF91200BDF91010654C07
:1027D000BDF90E2000EE900A9FED5F0AF8EEE00AC8
:1027E00001EE101A60EE800AB8EEC11AC4ED030AB9
:1027F00021EE001ABDF90C0084ED041A00EE902AB7
:10280000F8EEE00A01EE100A20EE800AB8EEC11AD6
:1028100084ED050A11EE100A00F02AFB4FF0663233
:10282000524BFFF769F900F07FFDBDF90A502060B7
:1028300000EE105AB8EEC00A10EE100A00F018FBB5
:102840004FF06632494BFFF757F900F06DFD6060BD
:10285000BDF9080000EE100AB8EEC00A10EE100A2A
:1028600000F006FB4FF06632404BFFF745F900F0F1
:102870005BFDA06005B030BD80B5FFF795FF39491D
:1028800091ED060AD1ED070A91ED0B1AD1ED081A68
:1028900091ED012AD1ED052A91ED043AD1ED003AEE
:1028A0004FF47A7091ED094AD1ED034A91ED0A5A3D
:1028B00034EE244AD1ED024A35EE035A71EEA44AB1
:1028C000401E81ED094A81ED0A5A31EE221A30EE9E
:1028D000230A70EE820AF0EE641AE3D181ED0B1A3E
:1028E000C1ED081A9FED1D1A84EE011ADFED1B1AC7
:1028F000C1EE211A9FED191A80EE010A81ED060A38
:102900009FED162A9FED150A81EE822ADFED131A3C
:10291000C0EEA10A84EE800A81ED092AC1ED070A02
:1029200081ED080A01BDE0B502228DF804008DF8A2
:1029300005100092EBE6E0B540F080008DF8040051
:1029400001AB0220009001AA0221074800F087FC99
:102950009DF8050003B000BD0000003A00007A4475
:1029600000A00E40D85AFF1F00D0024066663040DB
:1029700049434D32303630322054657374000000C4
:102980000D0A4C512049434D3230363032205465C7
:102990007374000049434D32303630322054657331
:1029A00074204661696C0000252E3366000000002B
:1029B0000D0A785F6163633A20252E33662000009C
:1029C0000D0A785F6779726F3A20252E33662000F2
:1029D0000A2A2A2A2A2A2A2A2A2A2A2A2A2A2A2A77
:1029E0002A2A2A2A2A2A0A0049443D2523580D0A60
:1029F0000000000049434D323036303220697320E8
:102A00006661696C210A000049434D32303630322C
:102A1000206973204F4B210A0000000042490969D8
:102A20000A791306FCD5C871704730B43F4A90420A
:102A300006D13F4BDC6844F48064DC603D4C2EE002
:102A40003D4B98420AD13A4BDC6844F40064DC60A8
:102A50004FF44073394C2360636024E0384B984254
:102A600006D1334BDC6844F48054DC60354C16E00E
:102A7000354B98420AD12E4BDC6844F40054DC609C
:102A80004FF440732D4C6363A3630CE02F4B9842CB
:102A900009D1274B1C6844F480641C602C4C4FF413
:102AA0004073636023609042C37803F0F303C37004
:102AB000837883701BBF204A9042264B264B274ABF
:102AC0001B7853430C01B3FBF4F294B2B4F5005FEE
:102AD000A8BF41F6FF72047815042D0E04F0E0043F
:102AE00005F01F052C4304704270B3FBF1F1847AAA
:102AF000A1EB021104F0E00401F01F010C43847209
:102B0000017C41F088010174C17841F02C01C17051
:102B100030BC704702791306FCD5C171704701794A
:102B20008A06FCD5C0797047E000FF1F00A0064070
:102B3000288004403890044000B006400CB00440A7
:102B400000C0064008C0044000D0064000A00E406F
:102B500060D004404A5BFF1F4B5BFF1F40420F00E9
:102B600010B5002201214C2000F012FC00220121AE
:102B70004D2000F00DFC002201214E2000F008FC49
:102B8000002201214F2000F003FC002201215020EF
:102B900000F0FEFBDFF8A842206840F4803020609F
:102BA0003220216821F48041216000F0F3F8206890
:102BB00040F480402060AE2000F084F8002000F057
:102BC00081F8102000F07EF8402000F07BF8812092
:102BD00000F078F8CF2000F075F8A12000F072F82E
:102BE000C82000F06FF8A62000F06CF8A82000F0D4
:102BF00069F83F2000F066F8D32000F063F8002069
:102C000000F060F8D52000F05DF8802000F05AF860
:102C1000D92000F057F8F12000F054F8DA2000F045
:102C200051F8122000F04EF8DB2000F04BF8402065
:102C300000F048F8202000F045F8022000F042F8AB
:102C40008D2000F03FF8142000F03CF8A42000F0A4
:102C500039F8A62000F036F8AF2000F033F8002055
:102C600000F067F8B02000F02DF8102000F02AF8EE
:102C7000BDE81040002025E010B4DFF8C421116841
:102C800041F4005111600821136823F4803313606C
:102C9000491E030604D5146844F40044146003E09C
:102CA000136823F400431360146854F480341460F0
:102CB00000BF1368400023F4803300291360E7D17C
:102CC00010BC704710B4DFF87821116821F400516E
:102CD00011600821136823F480331360491E030632
:102CE00004D5146844F40044146003E0136823F42A
:102CF00000431360146854F48034146000BF1368F8
:102D0000400023F4803300291360E7D110BC7047E2
:102D100010B50446A1F15000C0B2FFF7D3FF20095F
:102D200040F01000FFF7CEFF04F00F00BDE81040A8
:102D3000C8E770B505460026A6F15000C0B2FFF7FF
:102D4000C1FF0120FFF7BEFF1020FFF7BBFF842467
:102D50002846FFF791FF641EFAD1761CF0B20828CE
:102D6000EADB70BD38B50025A5F15000C0B2FFF711
:102D7000A9FF0120FFF7A6FF1020FFF7A3FF84247F
:102D80000020FFF779FF641EFAD16D1CE8B2082815
:102D9000EADB31BD70472DE9F04104460D4690460F
:102DA000002746E0A0F120063606E0B27928A4BF4D
:102DB00000246D1CE9B2E0B2FFF7AAFFDFF884003F
:102DC00000EB16567F1C3078FFF756FF7078FFF740
:102DD00053FFB078FFF750FFF078FFF74DFF3079E1
:102DE000FFF74AFF7079FFF747FFB079FFF744FF1D
:102DF000F079FFF741FF691CC9B2E0B2FFF788FF25
:102E0000307AFFF739FF707AFFF736FFB07AFFF7B5
:102E100033FFF07AFFF730FF307BFFF72DFF707B39
:102E2000FFF72AFFB07BFFF727FFF07BFFF724FFB8
:102E30000834F8B218F800000028B3D1BDE8F081DA
:102E400080F00F40181F00000EB4C0B5024603A862
:102E500000210190009101AB0121044878440C301D
:102E6000FDF7D6FA06BC5DF810FB00BF931000001A
:102E7000C0F3C75181B1FF2906D0C110400721F02E
:102E8000E04101F16051704741020CBF40F4E001A4
:102E90006FF000410020704700F0004100020AD0AE
:102EA000B0FA80FC00FA0CF001F16051A1EB0C517A
:102EB00001EBD021400570470CB430B583B00A4611
:102EC00006A90291044600250194009502AB01A9D0
:102ED000084878441E30FDF79BFA019A15700028C7
:102EE0004EBF04460198041B204603B030BC5DF879
:102EF0000CFB00BF5FE3FFFF38B504460B4D032119
:102F00002846FFF707FEFC212846FFF703FE21783D
:102F10002846FFF7FFFDFC212846FFF7FBFD28466A
:102F2000BDE834400321FFF7F5BD000000A00E40CE
:102F3000FFE7010013D00A490A6842F001020A6063
:102F4000002308490B6088600122052048600A6060
:102F500008680206FCD50868400840000860704711
:102F600038800440000004402DE9F84F94B0044636
:102F7000884617461D4604A8DFF874134022FEF762
:102F8000CFFB0FF29432DFF86CC392E8030C6E466D
:102F9000002386E8030C64454FF0FF31D64A5CD12C
:102FA000DFF858C3DCF80CE04EF4805ECCF80CE09F
:102FB000D2F800C0DCF83CE04EF4007ECCF83CE0F7
:102FC000DCF840E04EF4007ECCF840E0DCF844E071
:102FD0004EF4007ECCF844E05FEAC87E05D5DCF80C
:102FE000389049F40079CCF838905FEA887C07D5AE
:102FF000D2F808C0DCF80CE04EF4007ECCF80CE00F
:103000005FEA487C07D5D2F808C0DCF808E04EF447
:10301000007ECCF808E05FEA087C07D5D2F808C04B
:10302000DCF804E04EF4007ECCF804E05FEAC86C03
:1030300007D5D2F808C0DCF800E04EF4007ECCF8EA
:1030400000E05FEA886C40F181805268D2F85CC091
:103050004CF4007CC2F85CC078E0DFF8A4C26445A0
:1030600041D1DFF898C2DCF80CE04EF4005ECCF8F9
:103070000CE0D2F810C0DCF808E04EF4007ECCF88A
:1030800008E0DCF804E04EF4007ECCF804E0DCF864
:103090000CE04EF4007ECCF80CE05FEAC87E06D56A
:1030A0005268D2F828E04EF4007EC2F828E05FEAC9
:1030B000887205D5DCF8002042F40072CCF80020BC
:1030C0005FEA487205D5DCF8142042F40072CCF8AF
:1030D00014205FEA087239D5DCF8182042F4007237
:1030E000CCF8182032E0DFF81CC264452ED1DFF89E
:1030F0000CC2DCF800E04EF4805ECCF800E0D2F8C0
:1031000004C0DCF854E04EF4007ECCF854E0DCF867
:1031100058E04EF4007ECCF858E0DCF85CE04EF469
:10312000007ECCF85CE05FEAC87E05D5DCF8509004
:1031300049F40079CCF850905FEA887C06D5D268D3
:10314000D2F83CC04CF4007CC2F83CC040F60142CE
:103150002260002F6C4AE26277D16C4820600DF14A
:10316000100C1E9ADCF800904FF0000EE846D8F8DC
:10317000000000FB09F0801A48BF404208B18842B5
:1031800003D201463B46764658B10EF1010EBEF120
:10319000040F08F10408EADB7F1C102F0CF1040C6B
:1031A000E0DB5B495B48097804AA414352F823708D
:1031B0005DF826004743B1FBF7F0B1FBF0F84FEAAA
:1031C00058080F274FF0030C4FF000094FF0010E85
:1031D00009F101020EFA02FAB8FBFAF1491EC9051B
:1031E000090E04290DDA4FEA410B0BF1010B0BFB21
:1031F0000AFABAEB080A48BFCAF1000A1AF1010F2D
:1032000020D191465FFA89F11029E1DB36043F06AF
:1032100006F4403603F00F033F0B1E4307F47047DC
:103220004FEA8C513E4301F440010E4346F0605694
:10323000EA0748BF46F00076690808BF46F0806696
:10324000E66005E04F468C46E0E74FF07851E160DC
:10325000226852085200226015B0BDE8F08FF0B528
:103260000C4600252849C162066846F4406606609F
:10327000C76ABE03F7D405992404491E04F47C14DC
:1032800021D016461F4696F800C04CEA040C4CF0BC
:10329000004CC0F834C0D0F82CC05FEA8C3EFAD5A0
:1032A000002B1ABFD0F838C087F800C0D0F838E03B
:1032B000D0F82CC06D1C7F1C761C4CF4003C8D4259
:1032C000C0F82CC0DFD3515D0C4344F0006444636C
:1032D000C16ACA00FCD5C16A8A03FCD5002B1ABF9B
:1032E000816B5955826BC16A41F40031C162F0BDF6
:1032F000543D000000C002409400FF1F3080044095
:1033000000D0024000C00A4000000A1A00003F80BE
:103310004B5BFF1F40420F00020000000300000053
:10332000050000000700000001F000428B1AA3F125
:103330006051B1F5801F0ADBB1F17F6F1FD242EA05
:10334000C102C10071F1004142EB507070470B1592
:10335000C3F10903212B10D2890241EA9051800266
:103360000128494141F0004121FA03F0C3F1200353
:10337000994071F1004150417047100070476FF063
:10338000000013EB103F5CBF000E42EAC0507047D4
:103390001A4BF0B41D684FF400764409A64035433B
:1033A0001D6000F01F00164D05EB84035E6956F8A2
:1033B000203023F4E06346F8203056F8203043F400
:1033C000807346F8203056F820700F4346F820707E
:1033D00055F8243001240029596904FA00F014BF7B
:1033E000014381435961002A19BF196808431A68CB
:1033F00022EA00001860F0BC7047000038800440EA
:103400008000FF1F00EB411000F580501168016043
:1034100093888380D188C18093688360D168C160BC
:1034200013690361918A8182D38AC38200239169DF
:1034300081618383918B8183D28BC283704700002B
:1034400000BF0021016000228280C1808160C260D3
:1034500001618282C182826108218183C2837047B7
:1034600010B40B6803604C6804610B7A4C7A1B0241
:1034700003F4E06304F007042343C3804B89838093
:103480008C8984820B6983604969C182C1833AB1A6
:1034900082614FF6F771828B0A4042F010028283FC
:1034A00010BC7047024602EB411041F21C03C35AA4
:1034B000D06A526AC8404000CA40C3F3C01300F04B
:1034C00002009200184302F004021043704730B427
:1034D000039C049D43600160012AB5FBF4F1046183
:1034E000416108D0022A09D0042A09D0102A09D043
:1034F000202A0AD00BE00024047208E0012102E037
:10350000022303E00421017201E005230372029B00
:10351000012B08D0022B08D0042B08D0102B08D088
:10352000202B09D00AE0002407E0012102E0022458
:1035300003E00421417201E005244472059939B188
:10354000022907D03EBF83810021418130BC7047F2
:10355000838101E000218181428130BC70472DE9E7
:10356000F04705468A46A868297C00EB411202F51F
:103570008053E8681E4600BBB08B30B1B08B0106AB
:1035800058BF41F2ED3040F190800022514618467C
:10359000FFF766FF287CAA6841F21C0140010A443B
:1035A000135A43F008031352287CAA6840011144BF
:1035B0000B5A43F002030B5276E0EFF3108072B621
:1035C00095F9131095F91420914205DB80F31088CA
:1035D00041F2EC30BDE8F08795F91280E97C491C96
:1035E000E97408F101014FFA81F995F91410894540
:1035F00008BF4FF0000985F8129080F310884FEA59
:103600004814B8F1000F12BFA8F10107287D471E2A
:10361000E8680019FFF714FFE86800225146001916
:10362000FFF71EFFE86800F11C011C300A5B42F046
:10363000020202537FB2E86800EB49111830B84526
:10364000015123D0E9687F0101F11C024FF6F770A8
:10365000D25B02401C3142F01002CA53B069E968E3
:103660000919884210D1B28B4FF6F770024042F030
:103670001002B283B08BC10616D4B069E96801EBC1
:103680004911884202D10FE0B06968B9E868297C25
:103690000219A868FFF7B6FE687D010604D5287CEC
:1036A000A96800F01F00C8760020BDE8F08730B49C
:1036B0008268037CC16821B903F01F03D37630BC54
:1036C000704702EB4311437D01F5805243F08003C4
:1036D0004375916999B1EFF3108172B6037C8068EC
:1036E000C468DC40E50708D4948B250602D5928B8C
:1036F000D40602D503F01F03C37681F3108830BCD3
:10370000704710B58268017CD177C16821B904681F
:1037100014B1002301222FE08268037C02EB4314E2
:1037200041F218022244136892881206591AD20FE5
:103730004909130003D109B990F91410491E90F9F1
:103740001140CBB2A34209D190F9133090F9144043
:10375000A34214BF002390F9133007E090F9113011
:10376000CCB2E31A44BF90F914401B194174C17CD8
:10377000C91AC17404680CB14168A04710BD10B5E6
:10378000164C0A212046FFF78DFE400703D512494B
:10379000886AFFF7B6FF1A212046FFF783FE40072D
:1037A00002D50D49886E1BE010BD10B50B4C0B21E6
:1037B0002046FFF777FE400703D50749C86AFFF7A1
:1037C000A0FF1B212046FFF76DFE400702D50249EE
:1037D000C86E05E010BD00001859FF1F00800040B2
:1037E000BDE810408DE7000018B4DFF8282102F191
:1037F0003403997839B9AA283DD101209870AA21BB
:10380000117011BC7047012907D1AF2833D10220B4
:103810009870AF21517011BC7047022904D1F12872
:1038200029DA032190702AE0032907D1322822DA0D
:10383000D070187004210020587020E004290ED1A7
:103840001978C1B14C1E59781C700A44491C10717A
:103850005970E4B28CB90520987011BC70470529E5
:1038600009D10021997059785318491D1871C9B2AE
:10387000104614BC0CE000229A7011BC704799707D
:1038800011BC704701F134022349244800F048B8C4
:1038900038B505460024481E012805DB2A4612F8E3
:1038A000013BE418401EFAD12944E0B211F8011C92
:1038B000884201BF2878AA286878AF2825D1A9783E
:1038C000012904BF012000F09EF8A97810291CD11D
:1038D0000E4AAA201070507054710220D0701171DD
:1038E000EF2550799570411807209063453191710B
:1038F000526307484178CB0707D4417841F0010172
:1039000041703432BDE83840BEE731BD645AFF1F14
:10391000F400FF1FA05AFF1F9859FF1F00A00E4080
:1039200070B50C468AB0617E05461046012908BF75
:103930004FF47A7021D00121617602214268E26061
:10394000039101264268019600960292EB1D0168E0
:10395000012204A8FFF7BBFD2069267604A9FFF722
:10396000FEFD2069FFF7A3FEE87A40F08000E872D0
:10397000E87840F08000E87000200AB070BD0000D8
:1039800005281DD8DFE800F003070B0F13170022EE
:103990000121112012E00022012140200EE000222E
:1039A00001216F200AE0002201219A2006E0002276
:1039B0000121522002E0002201215320FFF7E8BC40
:1039C0007047000005281DD8DFE800F003070B0F43
:1039D000131701220121112012E0012201214020B0
:1039E0000EE0012201216F200AE0012201219A202C
:1039F00006E001220121522002E001220121532090
:103A0000FFF7C6BC7047074B195C491C1954C9B273
:103A100001EBD1725208B1EB420108BFFFF7B0BF12
:103A2000D0E70000385BFF1FF0B43B4B1C6844F448
:103A3000785405001C603BD0401E0F2838D8DFE8C2
:103A400000F0080B0E1114171A1D2023262C292F05
:103A50003235042100222BE00421022228E0042137
:103A6000042225E00421082222E004210A221FE08A
:103A700004210C221CE004210E2219E00421102252
:103A800016E00421122213E00421142210E0042184
:103A900018220DE004211C220AE004211D2207E067
:103AA00004211E2204E004211F2201E0032116222A
:103AB0001A481B4F8024047001F007050571194C4A
:103AC0002568266846F47F062660DF6002F01F0343
:103AD000256043F04003437183799C06FCD58379CC
:103AE0005C06FCD5002303708379C3F38103032BA9
:103AF000FAD1D2B21032322010FB02F202EBD272B3
:103B0000C9B209485210491C92FBF1F101700278C8
:103B100052084270F0BC70473880044000400640B4
:103B20000000270100F001404A5BFF1F2C492D4A8D
:103B3000097811604FF47A7010FB01F15160642034
:103B40001921117690601920516841436FF07F422E
:103B500091420BD82448254A21F07F41491E4160FB
:103B60000023F021117083600721016070471D4818
:103B70008168027E8A18826070471D48194A016870
:103B800090685268B1FBF2F1401A70471848154925
:103B900000688A6809684FF47A735A43B0FBF1F001
:103BA00000230021101A63EB0101704770B5114E1C
:103BB000044670688047002300195941441E61F192
:103BC000000570688047A942FBD301D8A042F8D312
:103BD00070BD084AD3684FF47A7148431847000013
:103BE0004A5BFF1F085BFF1F10E000E023ED00E0D1
:103BF00018E000E0CC00FF1F1A481B4A01E01B48F8
:103C00001B4A016841F001010160012010707047FA
:103C10001848194AF5E71948194AF2E7194801798D
:103C20008A0600D4704780B5FEF779FFBDE80240F0
:103C3000FFF7DABD14480168CA0202D5134B002110
:103C400019700268910202D5104B01221A700168A6
:103C50004A0202D50D4B022119704FF0FF3202606B
:103C6000704700000C710340405BFF1F1C71034054
:103C7000415BFF1F2C710340425BFF1F3C710340FF
:103C8000435BFF1F00A00E40A0A00440F600FF1FF2
:103C9000DFF800F0A900FF1F10B5DFF85800016839
:103CA0004A0419D50168DFF85040DFF8502041F48C
:103CB00080410160BC20237810FB03F3D11804205D
:103CC000FFF7E6FF2178792902DB0020207010BD84
:103CD0002178491C217010BD0268110409D50268C1
:103CE00042F4004202600021DFF80C000170012262
:103CF000427010BDA0C00440485BFF1FF800FF1FCA
:103D0000114801684A0500D4704710B501680F4C8E
:103D100041F4806101600E482178491C2170C9B2CC
:103D200001EBD1725208A1EB42014068012903D195
:103D30008047C4E9020110BD80470246D4E9020170
:103D4000121A628010BD0000A0D00440285BFF1F43
:103D5000CC00FF1F0200000004000000060000006D
:103D600008000000100000002000000040000000DB
:103D700080000000000100000002000000040000BC
:103D800000080000001000000020000000400000BB
:103D90000080000080B500F007F808490A884FF657
:103DA000FE7002400A8001BD72B605484CF22051F7
:103DB00001804DF62812028062B67047002005404F
:103DC0000E20054030B450F8041B79B102684368F6
:103DD00002440830DC0744BFA9F10104E31852F89B
:103DE000045B43F8045B091FF9D1ECE730BC704772
:103DF00080B50A20FFF718FE054A064813684FF6FB
:103E0000FF010B4003431360BDE80140FEF77CBB9C
:103E10000CED00E00005FA0572B6054805490160A1
:103E20000A6882F308880448804762B6034800475E
:103E300008ED00E000000000E53E0000213F00002A
:103E400010B5074979441831064C7C44163404E017
:103E50000A68081D114488470146A142F8D110BDE7
:103E60002C0000004C0000004EF68851CEF20001FC
:103E7000086840F470000860BFF34F8FBFF36F8F86
:103E80004FF00070E1EE100A7047000077D3FFFF9B
:103E9000545A0000F800FF1F0000000029FFFFFF38
:103EA000F8000000280200000000FF1F00000000D2
:103EB00000F00DF8002801D0FFF7C2FFAFF300803B
:103EC0000020AFF30080FFF793FF00F002F801201D
:103ED000704700F001B8000007463846FEF712F8B8
:103EE000FBE7000080B5FFF755FF0348016841F488
:103EF0007001016001BD000088ED00E0704738B539
:103F000004460D46284600F005F8A84218BF0024D4
:103F1000204632BD0149FEF781BD00BF0000FF1FF2
:103F2000AFF30080FFF7A0FFFFF7C2FF0048004794
:103F3000C940000000480047C94000000048004751
:103F4000C940000000480047C94000000048004741
:103F5000C940000000480047C94000000048004731
:103F6000C940000000480047C94000000048004721
:103F7000C940000000480047C94000000048004711
:103F8000C940000000480047C94000000048004701
:103F9000C940000000480047C940000000480047F1
:103FA000C940000000480047C940000000480047E1
:103FB000C940000000480047C940000000480047D1
:103FC000C940000000480047C940000000480047C1
:103FD000C940000000480047C940000000480047B1
:103FE000C940000000480047C940000000480047A1
:103FF000C940000000480047C94000000048004791
:10400000C940000000480047C94000000048004780
:10401000C940000000480047C94000000048004770
:10402000C940000000480047C94000000048004760
:10403000C940000000480047C94000000048004750
:10404000C940000000480047C94000000048004740
:10405000C940000000480047C94000000048004730
:10406000C940000000480047C94000000048004720
:10407000C940000000480047C94000000048004710
:10408000C940000000480047C94000000048004700
:10409000C940000000480047C940000000480047F0
:1040A000C940000000480047C940000000480047E0
:1040B000C940000000480047C940000000480047D0
:1040C000C940000000002E00FFF7FEBF02040101FE
:1040D000145AFF1F645AFF1F145AFF1F145AFF1F60
:1040E00000000000145AFF1F000000004400FF1FE2
:1040F0003000FF1F00000000000000000000000072
:1041000000000000000000000000000000000000AF
:1041100000000000C4400000C4400000C440000093
:10412000C4400000C4400000C4400000C44000007F
:10413000FFFFFFFFFFFFFFFFC6400000C44000007D
:10414000C4400000FFFFFFFFFFFF000000F00F4032
:1041500040F00F4080F00F40C0F00F4000F10F40E2
:104160000090044000A0044000B0044000C004409F
:1041700000D00440064A02EB401C0123CCF810108A
:1041800003FA00F003490A6810430860704700BF53
:10419000009000400C8000402D3B00008D3B000053
:1041A0007B3B0000AD3B0000D33B000000A006407D
:1041B00000B0064000C0064000D0064000A00E40FF
:0441C000E500030013
:0400000500003F2197
:00000001FF
